{
  "contractName": "SupplyChain",
  "abi": [
    {
      "constant": false,
      "inputs": [
        {
          "name": "account",
          "type": "address"
        }
      ],
      "name": "addConsumer",
      "outputs": [],
      "payable": false,
      "stateMutability": "nonpayable",
      "type": "function"
    },
    {
      "constant": true,
      "inputs": [
        {
          "name": "account",
          "type": "address"
        }
      ],
      "name": "isRetailer",
      "outputs": [
        {
          "name": "",
          "type": "bool"
        }
      ],
      "payable": false,
      "stateMutability": "view",
      "type": "function"
    },
    {
      "constant": false,
      "inputs": [],
      "name": "renounceConsumer",
      "outputs": [],
      "payable": false,
      "stateMutability": "nonpayable",
      "type": "function"
    },
    {
      "constant": false,
      "inputs": [],
      "name": "renounceDistributor",
      "outputs": [],
      "payable": false,
      "stateMutability": "nonpayable",
      "type": "function"
    },
    {
      "constant": false,
      "inputs": [],
      "name": "renounceOwnership",
      "outputs": [],
      "payable": false,
      "stateMutability": "nonpayable",
      "type": "function"
    },
    {
      "constant": false,
      "inputs": [
        {
          "name": "account",
          "type": "address"
        }
      ],
      "name": "addDistributor",
      "outputs": [],
      "payable": false,
      "stateMutability": "nonpayable",
      "type": "function"
    },
    {
      "constant": false,
      "inputs": [
        {
          "name": "account",
          "type": "address"
        }
      ],
      "name": "addFarmer",
      "outputs": [],
      "payable": false,
      "stateMutability": "nonpayable",
      "type": "function"
    },
    {
      "constant": false,
      "inputs": [],
      "name": "renounceFarmer",
      "outputs": [],
      "payable": false,
      "stateMutability": "nonpayable",
      "type": "function"
    },
    {
      "constant": true,
      "inputs": [
        {
          "name": "account",
          "type": "address"
        }
      ],
      "name": "isConsumer",
      "outputs": [
        {
          "name": "",
          "type": "bool"
        }
      ],
      "payable": false,
      "stateMutability": "view",
      "type": "function"
    },
    {
      "constant": true,
      "inputs": [],
      "name": "owner",
      "outputs": [
        {
          "name": "",
          "type": "address"
        }
      ],
      "payable": false,
      "stateMutability": "view",
      "type": "function"
    },
    {
      "constant": false,
      "inputs": [
        {
          "name": "account",
          "type": "address"
        }
      ],
      "name": "addRetailer",
      "outputs": [],
      "payable": false,
      "stateMutability": "nonpayable",
      "type": "function"
    },
    {
      "constant": true,
      "inputs": [
        {
          "name": "account",
          "type": "address"
        }
      ],
      "name": "isDistributor",
      "outputs": [
        {
          "name": "",
          "type": "bool"
        }
      ],
      "payable": false,
      "stateMutability": "view",
      "type": "function"
    },
    {
      "constant": true,
      "inputs": [],
      "name": "isOwner",
      "outputs": [
        {
          "name": "",
          "type": "bool"
        }
      ],
      "payable": false,
      "stateMutability": "view",
      "type": "function"
    },
    {
      "constant": true,
      "inputs": [
        {
          "name": "account",
          "type": "address"
        }
      ],
      "name": "isFarmer",
      "outputs": [
        {
          "name": "",
          "type": "bool"
        }
      ],
      "payable": false,
      "stateMutability": "view",
      "type": "function"
    },
    {
      "constant": false,
      "inputs": [],
      "name": "renounceRetailer",
      "outputs": [],
      "payable": false,
      "stateMutability": "nonpayable",
      "type": "function"
    },
    {
      "constant": false,
      "inputs": [
        {
          "name": "newOwner",
          "type": "address"
        }
      ],
      "name": "transferOwnership",
      "outputs": [],
      "payable": false,
      "stateMutability": "nonpayable",
      "type": "function"
    },
    {
      "inputs": [],
      "payable": true,
      "stateMutability": "payable",
      "type": "constructor"
    },
    {
      "anonymous": false,
      "inputs": [
        {
          "indexed": false,
          "name": "upc",
          "type": "uint256"
        }
      ],
      "name": "Harvested",
      "type": "event"
    },
    {
      "anonymous": false,
      "inputs": [
        {
          "indexed": false,
          "name": "upc",
          "type": "uint256"
        }
      ],
      "name": "Processed",
      "type": "event"
    },
    {
      "anonymous": false,
      "inputs": [
        {
          "indexed": false,
          "name": "upc",
          "type": "uint256"
        }
      ],
      "name": "Packed",
      "type": "event"
    },
    {
      "anonymous": false,
      "inputs": [
        {
          "indexed": false,
          "name": "upc",
          "type": "uint256"
        }
      ],
      "name": "ForSale",
      "type": "event"
    },
    {
      "anonymous": false,
      "inputs": [
        {
          "indexed": false,
          "name": "upc",
          "type": "uint256"
        }
      ],
      "name": "Sold",
      "type": "event"
    },
    {
      "anonymous": false,
      "inputs": [
        {
          "indexed": false,
          "name": "upc",
          "type": "uint256"
        }
      ],
      "name": "Shipped",
      "type": "event"
    },
    {
      "anonymous": false,
      "inputs": [
        {
          "indexed": false,
          "name": "upc",
          "type": "uint256"
        }
      ],
      "name": "Received",
      "type": "event"
    },
    {
      "anonymous": false,
      "inputs": [
        {
          "indexed": false,
          "name": "upc",
          "type": "uint256"
        }
      ],
      "name": "Purchased",
      "type": "event"
    },
    {
      "anonymous": false,
      "inputs": [
        {
          "indexed": true,
          "name": "account",
          "type": "address"
        }
      ],
      "name": "FarmerAdded",
      "type": "event"
    },
    {
      "anonymous": false,
      "inputs": [
        {
          "indexed": true,
          "name": "account",
          "type": "address"
        }
      ],
      "name": "FarmerRemoved",
      "type": "event"
    },
    {
      "anonymous": false,
      "inputs": [
        {
          "indexed": true,
          "name": "roleAddress",
          "type": "address"
        }
      ],
      "name": "DistributorAdd",
      "type": "event"
    },
    {
      "anonymous": false,
      "inputs": [
        {
          "indexed": true,
          "name": "roleAddress",
          "type": "address"
        }
      ],
      "name": "DistributorRemove",
      "type": "event"
    },
    {
      "anonymous": false,
      "inputs": [
        {
          "indexed": true,
          "name": "account",
          "type": "address"
        }
      ],
      "name": "RetailersAdded",
      "type": "event"
    },
    {
      "anonymous": false,
      "inputs": [
        {
          "indexed": true,
          "name": "account",
          "type": "address"
        }
      ],
      "name": "RetailersRemove",
      "type": "event"
    },
    {
      "anonymous": false,
      "inputs": [
        {
          "indexed": true,
          "name": "roleAddress",
          "type": "address"
        }
      ],
      "name": "RetailerAdd",
      "type": "event"
    },
    {
      "anonymous": false,
      "inputs": [
        {
          "indexed": true,
          "name": "roleAddress",
          "type": "address"
        }
      ],
      "name": "RetailerRemove",
      "type": "event"
    },
    {
      "anonymous": false,
      "inputs": [
        {
          "indexed": true,
          "name": "roleAddress",
          "type": "address"
        }
      ],
      "name": "ConsumerAdd",
      "type": "event"
    },
    {
      "anonymous": false,
      "inputs": [
        {
          "indexed": true,
          "name": "roleAddress",
          "type": "address"
        }
      ],
      "name": "ConsumerRemove",
      "type": "event"
    },
    {
      "anonymous": false,
      "inputs": [
        {
          "indexed": true,
          "name": "oldOwner",
          "type": "address"
        },
        {
          "indexed": true,
          "name": "newOwner",
          "type": "address"
        }
      ],
      "name": "TransferOwnership",
      "type": "event"
    },
    {
      "constant": false,
      "inputs": [
        {
          "name": "_upc",
          "type": "uint256"
        },
        {
          "name": "_originFarmerID",
          "type": "address"
        },
        {
          "name": "_originFarmName",
          "type": "string"
        },
        {
          "name": "_originFarmInformation",
          "type": "string"
        },
        {
          "name": "_originFarmLatitude",
          "type": "string"
        },
        {
          "name": "_originFarmLongitude",
          "type": "string"
        },
        {
          "name": "_productID",
          "type": "uint256"
        },
        {
          "name": "_productNotes",
          "type": "string"
        }
      ],
      "name": "harvestItem",
      "outputs": [],
      "payable": false,
      "stateMutability": "nonpayable",
      "type": "function"
    },
    {
      "constant": false,
      "inputs": [
        {
          "name": "_upc",
          "type": "uint256"
        }
      ],
      "name": "processItem",
      "outputs": [],
      "payable": false,
      "stateMutability": "nonpayable",
      "type": "function"
    },
    {
      "constant": false,
      "inputs": [
        {
          "name": "_upc",
          "type": "uint256"
        }
      ],
      "name": "packItem",
      "outputs": [],
      "payable": false,
      "stateMutability": "nonpayable",
      "type": "function"
    },
    {
      "constant": false,
      "inputs": [
        {
          "name": "_upc",
          "type": "uint256"
        },
        {
          "name": "_price",
          "type": "uint256"
        }
      ],
      "name": "sellItem",
      "outputs": [],
      "payable": false,
      "stateMutability": "nonpayable",
      "type": "function"
    },
    {
      "constant": false,
      "inputs": [
        {
          "name": "_upc",
          "type": "uint256"
        }
      ],
      "name": "buyItem",
      "outputs": [],
      "payable": true,
      "stateMutability": "payable",
      "type": "function"
    },
    {
      "constant": false,
      "inputs": [
        {
          "name": "_upc",
          "type": "uint256"
        }
      ],
      "name": "shipItem",
      "outputs": [],
      "payable": false,
      "stateMutability": "nonpayable",
      "type": "function"
    },
    {
      "constant": false,
      "inputs": [
        {
          "name": "_upc",
          "type": "uint256"
        }
      ],
      "name": "receiveItem",
      "outputs": [],
      "payable": false,
      "stateMutability": "nonpayable",
      "type": "function"
    },
    {
      "constant": false,
      "inputs": [
        {
          "name": "_upc",
          "type": "uint256"
        }
      ],
      "name": "purchaseItem",
      "outputs": [],
      "payable": false,
      "stateMutability": "nonpayable",
      "type": "function"
    },
    {
      "constant": true,
      "inputs": [
        {
          "name": "_upc",
          "type": "uint256"
        }
      ],
      "name": "fetchItemBufferOne",
      "outputs": [
        {
          "name": "itemSKU",
          "type": "uint256"
        },
        {
          "name": "itemUPC",
          "type": "uint256"
        },
        {
          "name": "ownerID",
          "type": "address"
        },
        {
          "name": "originFarmerID",
          "type": "address"
        },
        {
          "name": "originFarmName",
          "type": "string"
        },
        {
          "name": "originFarmInformation",
          "type": "string"
        },
        {
          "name": "originFarmLatitude",
          "type": "string"
        },
        {
          "name": "originFarmLongitude",
          "type": "string"
        }
      ],
      "payable": false,
      "stateMutability": "view",
      "type": "function"
    },
    {
      "constant": true,
      "inputs": [
        {
          "name": "_upc",
          "type": "uint256"
        }
      ],
      "name": "fetchItemBufferTwo",
      "outputs": [
        {
          "name": "itemSKU",
          "type": "uint256"
        },
        {
          "name": "itemUPC",
          "type": "uint256"
        },
        {
          "name": "productID",
          "type": "uint256"
        },
        {
          "name": "productNotes",
          "type": "string"
        },
        {
          "name": "productPrice",
          "type": "uint256"
        },
        {
          "name": "itemState",
          "type": "uint256"
        },
        {
          "name": "distributorID",
          "type": "address"
        },
        {
          "name": "retailerID",
          "type": "address"
        },
        {
          "name": "consumerID",
          "type": "address"
        }
      ],
      "payable": false,
      "stateMutability": "view",
      "type": "function"
    }
  ],
  "bytecode": "0x6080604052336000806101000a81548173ffffffffffffffffffffffffffffffffffffffff021916908373ffffffffffffffffffffffffffffffffffffffff1602179055506000809054906101000a900473ffffffffffffffffffffffffffffffffffffffff1673ffffffffffffffffffffffffffffffffffffffff16600073ffffffffffffffffffffffffffffffffffffffff167f5c486528ec3e3f0ea91181cff8116f02bfa350e03b8b6f12e00765adbb5af85c60405160405180910390a3620000da336200013e640100000000026401000000009004565b620000f433620001a8640100000000026401000000009004565b6200010e3362000212640100000000026401000000009004565b62000128336200027c640100000000026401000000009004565b600160068190555060016005819055506200043e565b62000162816001620002e66401000000000262002773179091906401000000009004565b8073ffffffffffffffffffffffffffffffffffffffff167f475f08a0d330251c9b2f04d9ce6dd51056b2681a3389e4abc8342ff284d968ab60405160405180910390a250565b620001cc816002620002e66401000000000262002773179091906401000000009004565b8073ffffffffffffffffffffffffffffffffffffffff167fb4a431a72317fbd80041e50353d7c8cf2ed61e8d95c337071110d0a09123394360405160405180910390a250565b62000236816003620002e66401000000000262002773179091906401000000009004565b8073ffffffffffffffffffffffffffffffffffffffff167ffb0e41ada6db6cce9d82b7cbb04e0798101c0388ade90bbfd9ee50d8520c97de60405160405180910390a250565b620002a0816004620002e66401000000000262002773179091906401000000009004565b8073ffffffffffffffffffffffffffffffffffffffff167f2e0ded4123377a3c2bc9a26f1717655a129e2f20752924d42e730ec89c83dbd060405160405180910390a250565b600073ffffffffffffffffffffffffffffffffffffffff168173ffffffffffffffffffffffffffffffffffffffff16141515156200032357600080fd5b6200033e8282620003a9640100000000026401000000009004565b1515156200034b57600080fd5b60018260000160008373ffffffffffffffffffffffffffffffffffffffff1673ffffffffffffffffffffffffffffffffffffffff16815260200190815260200160002060006101000a81548160ff0219169083151502179055505050565b60008073ffffffffffffffffffffffffffffffffffffffff168273ffffffffffffffffffffffffffffffffffffffff1614151515620003e757600080fd5b8260000160008373ffffffffffffffffffffffffffffffffffffffff1673ffffffffffffffffffffffffffffffffffffffff16815260200190815260200160002060009054906101000a900460ff16905092915050565b6129a3806200044e6000396000f300608060405260043610610154576000357c0100000000000000000000000000000000000000000000000000000000900463ffffffff168063112940f9146101595780632d9235611461019c57806349dae766146101d35780635da09b881461020057806361e6982d1461025b578063644241db1461027257806366225ff914610289578063715018a6146103eb5780637250e2241461040257806377c459131461044557806380c3f96d146106a357806380fc0ce4146106e6578063834ff739146106fd5780638da5cb5b146107585780638ec4f505146107af5780638f0c86fa146107f25780638f32d59b1461084d578063a26be9991461087c578063b9429069146108a9578063cf2991b014610904578063d38ea5bf14610ab9578063db0e6a2f14610ae6578063e7fb74c714610afd578063f2fde38b14610b1d578063f30fc48014610b60578063f61c899a14610b8d575b600080fd5b34801561016557600080fd5b5061019a600480360381019080803573ffffffffffffffffffffffffffffffffffffffff169060200190929190505050610bba565b005b3480156101a857600080fd5b506101d16004803603810190808035906020019092919080359060200190929190505050610c69565b005b3480156101df57600080fd5b506101fe60048036038101908080359060200190929190505050610db5565b005b34801561020c57600080fd5b50610241600480360381019080803573ffffffffffffffffffffffffffffffffffffffff169060200190929190505050610ee3565b604051808215151515815260200191505060405180910390f35b34801561026757600080fd5b50610270610eff565b005b34801561027e57600080fd5b50610287610f0a565b005b34801561029557600080fd5b506102b460048036038101908080359060200190929190505050610f15565b604051808a8152602001898152602001888152602001806020018781526020018681526020018573ffffffffffffffffffffffffffffffffffffffff1673ffffffffffffffffffffffffffffffffffffffff1681526020018473ffffffffffffffffffffffffffffffffffffffff1673ffffffffffffffffffffffffffffffffffffffff1681526020018373ffffffffffffffffffffffffffffffffffffffff1673ffffffffffffffffffffffffffffffffffffffff168152602001828103825288818151815260200191508051906020019080838360005b838110156103a857808201518184015260208101905061038d565b50505050905090810190601f1680156103d55780820380516001836020036101000a031916815260200191505b509a505050505050505050505060405180910390f35b3480156103f757600080fd5b5061040061113d565b005b34801561040e57600080fd5b50610443600480360381019080803573ffffffffffffffffffffffffffffffffffffffff16906020019092919050505061120f565b005b34801561045157600080fd5b5061047060048036038101908080359060200190929190505050611298565b604051808981526020018881526020018773ffffffffffffffffffffffffffffffffffffffff1673ffffffffffffffffffffffffffffffffffffffff1681526020018673ffffffffffffffffffffffffffffffffffffffff1673ffffffffffffffffffffffffffffffffffffffff16815260200180602001806020018060200180602001858103855289818151815260200191508051906020019080838360005b8381101561052c578082015181840152602081019050610511565b50505050905090810190601f1680156105595780820380516001836020036101000a031916815260200191505b50858103845288818151815260200191508051906020019080838360005b83811015610592578082015181840152602081019050610577565b50505050905090810190601f1680156105bf5780820380516001836020036101000a031916815260200191505b50858103835287818151815260200191508051906020019080838360005b838110156105f85780820151818401526020810190506105dd565b50505050905090810190601f1680156106255780820380516001836020036101000a031916815260200191505b50858103825286818151815260200191508051906020019080838360005b8381101561065e578082015181840152602081019050610643565b50505050905090810190601f16801561068b5780820380516001836020036101000a031916815260200191505b509c5050505050505050505050505060405180910390f35b3480156106af57600080fd5b506106e4600480360381019080803573ffffffffffffffffffffffffffffffffffffffff16906020019092919050505061162f565b005b3480156106f257600080fd5b506106fb6116b8565b005b34801561070957600080fd5b5061073e600480360381019080803573ffffffffffffffffffffffffffffffffffffffff1690602001909291905050506116c3565b604051808215151515815260200191505060405180910390f35b34801561076457600080fd5b5061076d6116e0565b604051808273ffffffffffffffffffffffffffffffffffffffff1673ffffffffffffffffffffffffffffffffffffffff16815260200191505060405180910390f35b3480156107bb57600080fd5b506107f0600480360381019080803573ffffffffffffffffffffffffffffffffffffffff169060200190929190505050611709565b005b3480156107fe57600080fd5b50610833600480360381019080803573ffffffffffffffffffffffffffffffffffffffff169060200190929190505050611792565b604051808215151515815260200191505060405180910390f35b34801561085957600080fd5b506108626117ae565b604051808215151515815260200191505060405180910390f35b34801561088857600080fd5b506108a760048036038101908080359060200190929190505050611805565b005b3480156108b557600080fd5b506108ea600480360381019080803573ffffffffffffffffffffffffffffffffffffffff1690602001909291905050506119ea565b604051808215151515815260200191505060405180910390f35b34801561091057600080fd5b50610ab760048036038101908080359060200190929190803573ffffffffffffffffffffffffffffffffffffffff169060200190929190803590602001908201803590602001908080601f0160208091040260200160405190810160405280939291908181526020018383808284378201915050505050509192919290803590602001908201803590602001908080601f0160208091040260200160405190810160405280939291908181526020018383808284378201915050505050509192919290803590602001908201803590602001908080601f0160208091040260200160405190810160405280939291908181526020018383808284378201915050505050509192919290803590602001908201803590602001908080601f016020809104026020016040519081016040528093929190818152602001838380828437820191505050505050919291929080359060200190929190803590602001908201803590602001908080601f0160208091040260200160405190810160405280939291908181526020018383808284378201915050505050509192919290505050611a07565b005b348015610ac557600080fd5b50610ae460048036038101908080359060200190929190505050611bd3565b005b348015610af257600080fd5b50610afb611ddd565b005b610b1b60048036038101908080359060200190929190505050611de8565b005b348015610b2957600080fd5b50610b5e600480360381019080803573ffffffffffffffffffffffffffffffffffffffff169060200190929190505050612096565b005b348015610b6c57600080fd5b50610b8b600480360381019080803590602001909291905050506120b5565b005b348015610b9957600080fd5b50610bb8600480360381019080803590602001909291905050506121e5565b005b610bc3336116c3565b1515610c5d576040517f08c379a00000000000000000000000000000000000000000000000000000000081526004018080602001828103825260288152602001807f596f752061726520646f206e6f7420686176652074686520617070726f70726981526020017f61746520726f6c6500000000000000000000000000000000000000000000000081525060400191505060405180910390fd5b610c6681612315565b50565b8160026007811115610c7757fe5b600760006005548152602001908152602001600020600b0160009054906101000a900460ff166007811115610ca857fe5b141515610cb457600080fd5b6007600084815260200190815260200160002060030160009054906101000a900473ffffffffffffffffffffffffffffffffffffffff168073ffffffffffffffffffffffffffffffffffffffff163373ffffffffffffffffffffffffffffffffffffffff16141515610d2557600080fd5b600360076000868152602001908152602001600020600b0160006101000a81548160ff02191690836007811115610d5857fe5b02179055508260076000868152602001908152602001600020600a01819055507fa96ae0fc3224ebd79eebfe54bd130cc9cb94416cddd1f2386115e00b72532468846040518082815260200191505060405180910390a150505050565b8060006007811115610dc357fe5b60076000838152602001908152602001600020600b0160009054906101000a900460ff166007811115610df257fe5b141515610dfe57600080fd5b6007600083815260200190815260200160002060030160009054906101000a900473ffffffffffffffffffffffffffffffffffffffff168073ffffffffffffffffffffffffffffffffffffffff163373ffffffffffffffffffffffffffffffffffffffff16141515610e6f57600080fd5b600160076000858152602001908152602001600020600b0160006101000a81548160ff02191690836007811115610ea257fe5b02179055507f5afe3b1bf87069693c075da5c22a98d63d1aef98a30dbbe538d0781a98b77ee5836040518082815260200191505060405180910390a1505050565b6000610ef982600261236f90919063ffffffff16565b50919050565b610f0833612403565b565b610f133361245d565b565b600080600060606000806000806000600760008b8152602001908152602001600020600001549850600760008b8152602001908152602001600020600101549750600760008b8152602001908152602001600020600801549650600760008b81526020019081526020016000206009018054600181600116156101000203166002900480601f0160208091040260200160405190810160405280929190818152602001828054600181600116156101000203166002900480156110195780601f10610fee57610100808354040283529160200191611019565b820191906000526020600020905b815481529060010190602001808311610ffc57829003601f168201915b50505050509550600760008b8152602001908152602001600020600a01549450600760008b8152602001908152602001600020600b0160009054906101000a900460ff16600781111561106857fe5b9350600760008b8152602001908152602001600020600b0160019054906101000a900473ffffffffffffffffffffffffffffffffffffffff169250600760008b8152602001908152602001600020600c0160009054906101000a900473ffffffffffffffffffffffffffffffffffffffff169150600760008b8152602001908152602001600020600d0160009054906101000a900473ffffffffffffffffffffffffffffffffffffffff1690508888888888888888889850985098509850985098509850985098509193959799909294969850565b6111456117ae565b151561115057600080fd5b600073ffffffffffffffffffffffffffffffffffffffff166000809054906101000a900473ffffffffffffffffffffffffffffffffffffffff1673ffffffffffffffffffffffffffffffffffffffff167f5c486528ec3e3f0ea91181cff8116f02bfa350e03b8b6f12e00765adbb5af85c60405160405180910390a360008060006101000a81548173ffffffffffffffffffffffffffffffffffffffff021916908373ffffffffffffffffffffffffffffffffffffffff160217905550565b61121833611792565b151561128c576040517f08c379a00000000000000000000000000000000000000000000000000000000081526004018080602001828103825260198152602001807f596f7520617265206e6f742061206469737472696275746f720000000000000081525060200191505060405180910390fd5b611295816124b7565b50565b600080600080606080606080600760008a8152602001908152602001600020600001549750600760008a8152602001908152602001600020600101549650600760008a815260200190815260200160002060020160009054906101000a900473ffffffffffffffffffffffffffffffffffffffff169550600760008a815260200190815260200160002060030160009054906101000a900473ffffffffffffffffffffffffffffffffffffffff169450600760008a81526020019081526020016000206004018054600181600116156101000203166002900480601f0160208091040260200160405190810160405280929190818152602001828054600181600116156101000203166002900480156113f25780601f106113c7576101008083540402835291602001916113f2565b820191906000526020600020905b8154815290600101906020018083116113d557829003601f168201915b50505050509350600760008a81526020019081526020016000206005018054600181600116156101000203166002900480601f0160208091040260200160405190810160405280929190818152602001828054600181600116156101000203166002900480156114a35780601f10611478576101008083540402835291602001916114a3565b820191906000526020600020905b81548152906001019060200180831161148657829003601f168201915b50505050509250600760008a81526020019081526020016000206006018054600181600116156101000203166002900480601f0160208091040260200160405190810160405280929190818152602001828054600181600116156101000203166002900480156115545780601f1061152957610100808354040283529160200191611554565b820191906000526020600020905b81548152906001019060200180831161153757829003601f168201915b50505050509150600760008a81526020019081526020016000206007018054600181600116156101000203166002900480601f0160208091040260200160405190810160405280929190818152602001828054600181600116156101000203166002900480156116055780601f106115da57610100808354040283529160200191611605565b820191906000526020600020905b8154815290600101906020018083116115e857829003601f168201915b50505050509050878787878787878797509750975097509750975097509750919395975091939597565b611638336119ea565b15156116ac576040517f08c379a00000000000000000000000000000000000000000000000000000000081526004018080602001828103825260148152602001807f596f7520617265206e6f742061206661726d657200000000000000000000000081525060200191505060405180910390fd5b6116b581612511565b50565b6116c13361256b565b565b60006116d982600161236f90919063ffffffff16565b9050919050565b60008060009054906101000a900473ffffffffffffffffffffffffffffffffffffffff16905090565b61171233610ee3565b1515611786576040517f08c379a00000000000000000000000000000000000000000000000000000000081526004018080602001828103825260168152602001807f596f7520617265206e6f7420612072657461696c65720000000000000000000081525060200191505060405180910390fd5b61178f336125c5565b50565b60006117a882600361236f90919063ffffffff16565b50919050565b60008060009054906101000a900473ffffffffffffffffffffffffffffffffffffffff1673ffffffffffffffffffffffffffffffffffffffff163373ffffffffffffffffffffffffffffffffffffffff1614905090565b806005600781111561181357fe5b600760006005548152602001908152602001600020600b0160009054906101000a900460ff16600781111561184457fe5b14151561185057600080fd5b61185933610ee3565b15156118cd576040517f08c379a00000000000000000000000000000000000000000000000000000000081526004018080602001828103825260168152602001807f596f7520617265206e6f7420612072657461696c65720000000000000000000081525060200191505060405180910390fd5b336007600084815260200190815260200160002060020160006101000a81548173ffffffffffffffffffffffffffffffffffffffff021916908373ffffffffffffffffffffffffffffffffffffffff1602179055503360076000848152602001908152602001600020600b0160016101000a81548173ffffffffffffffffffffffffffffffffffffffff021916908373ffffffffffffffffffffffffffffffffffffffff160217905550600660076000848152602001908152602001600020600b0160006101000a81548160ff021916908360078111156119aa57fe5b02179055507fa8142743f8f70a4c26f3691cf4ed59718381fb2f18070ec52be1f1022d855557826040518082815260200191505060405180910390a15050565b6000611a0082600461236f90919063ffffffff16565b9050919050565b600654600760008a81526020019081526020016000206000018190555087600760008a81526020019081526020016000206001018190555086600760008a815260200190815260200160002060030160006101000a81548173ffffffffffffffffffffffffffffffffffffffff021916908373ffffffffffffffffffffffffffffffffffffffff16021790555085600760008a81526020019081526020016000206004019080519060200190611abe9291906128d2565b5084600760008a81526020019081526020016000206005019080519060200190611ae99291906128d2565b5083600760008a81526020019081526020016000206006019080519060200190611b149291906128d2565b5082600760008a81526020019081526020016000206007019080519060200190611b3f9291906128d2565b5081600760008a81526020019081526020016000206008018190555080600760008a81526020019081526020016000206009019080519060200190611b859291906128d2565b506001600654016006819055507f8e55ccfc9778ff8eba1646d765cf1982537ce0f9257054a17b48aad745250183886040518082815260200191505060405180910390a15050505050505050565b8060066007811115611be157fe5b600760006005548152602001908152602001600020600b0160009054906101000a900460ff166007811115611c1257fe5b141515611c1e57600080fd5b611c27336116c3565b1515611cc1576040517f08c379a00000000000000000000000000000000000000000000000000000000081526004018080602001828103825260288152602001807f596f752061726520646f206e6f7420686176652074686520617070726f70726981526020017f61746520726f6c6500000000000000000000000000000000000000000000000081525060400191505060405180910390fd5b336007600084815260200190815260200160002060020160006101000a81548173ffffffffffffffffffffffffffffffffffffffff021916908373ffffffffffffffffffffffffffffffffffffffff1602179055503360076000848152602001908152602001600020600b0160016101000a81548173ffffffffffffffffffffffffffffffffffffffff021916908373ffffffffffffffffffffffffffffffffffffffff1602179055506007806000848152602001908152602001600020600b0160006101000a81548160ff02191690836007811115611d9d57fe5b02179055507f653d56639fee6b566a5c804764e9689de38645f0b733df89a36a1b7b42173dd8826040518082815260200191505060405180910390a15050565b611de63361261f565b565b8060036007811115611df657fe5b600760006005548152602001908152602001600020600b0160009054906101000a900460ff166007811115611e2757fe5b141515611e3357600080fd5b34803410151515611e4357600080fd5b82600080336007600088815260200190815260200160002060020160006101000a81548173ffffffffffffffffffffffffffffffffffffffff021916908373ffffffffffffffffffffffffffffffffffffffff1602179055503360076000888152602001908152602001600020600b0160016101000a81548173ffffffffffffffffffffffffffffffffffffffff021916908373ffffffffffffffffffffffffffffffffffffffff160217905550600460076000888152602001908152602001600020600b0160006101000a81548160ff02191690836007811115611f2457fe5b02179055506007600087815260200190815260200160002060030160009054906101000a900473ffffffffffffffffffffffffffffffffffffffff1673ffffffffffffffffffffffffffffffffffffffff166108fc60076000898152602001908152602001600020600a01549081150290604051600060405180830381858888f19350505050158015611fbb573d6000803e3d6000fd5b507f92f64ca637d023f354075a4be751b169c1a8a9ccb6d33cdd0cb3520543995727866040518082815260200191505060405180910390a160076000848152602001908152602001600020600a01549150813403905060076000848152602001908152602001600020600d0160009054906101000a900473ffffffffffffffffffffffffffffffffffffffff1673ffffffffffffffffffffffffffffffffffffffff166108fc829081150290604051600060405180830381858888f1935050505015801561208d573d6000803e3d6000fd5b50505050505050565b61209e6117ae565b15156120a957600080fd5b6120b281612679565b50565b80600160078111156120c357fe5b600760006005548152602001908152602001600020600b0160009054906101000a900460ff1660078111156120f457fe5b14151561210057600080fd5b6007600083815260200190815260200160002060030160009054906101000a900473ffffffffffffffffffffffffffffffffffffffff168073ffffffffffffffffffffffffffffffffffffffff163373ffffffffffffffffffffffffffffffffffffffff1614151561217157600080fd5b600260076000858152602001908152602001600020600b0160006101000a81548160ff021916908360078111156121a457fe5b02179055507f9b3b66e2380b690bae22c73ef1428fb0c91e72fe14a4b6defa13035214187aff836040518082815260200191505060405180910390a1505050565b80600460078111156121f357fe5b600760006005548152602001908152602001600020600b0160009054906101000a900460ff16600781111561222457fe5b14151561223057600080fd5b6007600083815260200190815260200160002060030160009054906101000a900473ffffffffffffffffffffffffffffffffffffffff168073ffffffffffffffffffffffffffffffffffffffff163373ffffffffffffffffffffffffffffffffffffffff161415156122a157600080fd5b600560076000858152602001908152602001600020600b0160006101000a81548160ff021916908360078111156122d457fe5b02179055507ff00b9a5725b80c54016f42114f6ed7792d22eecb116011c4afac29c57bef6c95836040518082815260200191505060405180910390a1505050565b61232981600161277390919063ffffffff16565b8073ffffffffffffffffffffffffffffffffffffffff167f475f08a0d330251c9b2f04d9ce6dd51056b2681a3389e4abc8342ff284d968ab60405160405180910390a250565b60008073ffffffffffffffffffffffffffffffffffffffff168273ffffffffffffffffffffffffffffffffffffffff16141515156123ac57600080fd5b8260000160008373ffffffffffffffffffffffffffffffffffffffff1673ffffffffffffffffffffffffffffffffffffffff16815260200190815260200160002060009054906101000a900460ff16905092915050565b61241781600161282390919063ffffffff16565b8073ffffffffffffffffffffffffffffffffffffffff167f8def3d980252cf2d872ece9b0d5e08f5d4472df336ee30abf762d77438ce705660405160405180910390a250565b61247181600361282390919063ffffffff16565b8073ffffffffffffffffffffffffffffffffffffffff167ff27e085f9bf778256f70e4819854b551faccc37018a95385bda66ee2ce122afa60405160405180910390a250565b6124cb81600361277390919063ffffffff16565b8073ffffffffffffffffffffffffffffffffffffffff167ffb0e41ada6db6cce9d82b7cbb04e0798101c0388ade90bbfd9ee50d8520c97de60405160405180910390a250565b61252581600461277390919063ffffffff16565b8073ffffffffffffffffffffffffffffffffffffffff167f2e0ded4123377a3c2bc9a26f1717655a129e2f20752924d42e730ec89c83dbd060405160405180910390a250565b61257f81600461282390919063ffffffff16565b8073ffffffffffffffffffffffffffffffffffffffff167fa5e0f060af304ab17dd418c7927e3da3ae7868189bf387aee09ab179ccc572f260405160405180910390a250565b6125d981600261277390919063ffffffff16565b8073ffffffffffffffffffffffffffffffffffffffff167fb4a431a72317fbd80041e50353d7c8cf2ed61e8d95c337071110d0a09123394360405160405180910390a250565b61263381600261282390919063ffffffff16565b8073ffffffffffffffffffffffffffffffffffffffff167f3bdf2169605dbdcc5cadaed8006a43ce988862470f4a6e1db292e3212aa51e7b60405160405180910390a250565b600073ffffffffffffffffffffffffffffffffffffffff168173ffffffffffffffffffffffffffffffffffffffff16141515156126b557600080fd5b8073ffffffffffffffffffffffffffffffffffffffff166000809054906101000a900473ffffffffffffffffffffffffffffffffffffffff1673ffffffffffffffffffffffffffffffffffffffff167f5c486528ec3e3f0ea91181cff8116f02bfa350e03b8b6f12e00765adbb5af85c60405160405180910390a3806000806101000a81548173ffffffffffffffffffffffffffffffffffffffff021916908373ffffffffffffffffffffffffffffffffffffffff16021790555050565b600073ffffffffffffffffffffffffffffffffffffffff168173ffffffffffffffffffffffffffffffffffffffff16141515156127af57600080fd5b6127b9828261236f565b1515156127c557600080fd5b60018260000160008373ffffffffffffffffffffffffffffffffffffffff1673ffffffffffffffffffffffffffffffffffffffff16815260200190815260200160002060006101000a81548160ff0219169083151502179055505050565b600073ffffffffffffffffffffffffffffffffffffffff168173ffffffffffffffffffffffffffffffffffffffff161415151561285f57600080fd5b612869828261236f565b151561287457600080fd5b60008260000160008373ffffffffffffffffffffffffffffffffffffffff1673ffffffffffffffffffffffffffffffffffffffff16815260200190815260200160002060006101000a81548160ff0219169083151502179055505050565b828054600181600116156101000203166002900490600052602060002090601f016020900481019282601f1061291357805160ff1916838001178555612941565b82800160010185558215612941579182015b82811115612940578251825591602001919060010190612925565b5b50905061294e9190612952565b5090565b61297491905b80821115612970576000816000905550600101612958565b5090565b905600a165627a7a7230582031a71831c7fc72a590fd6b397bb5a4c379dec7c5524f5d4b60abd1c7e67533320029",
  "source": "pragma solidity ^0.4.24;\r\n// Define a contract 'Supplychain'\r\n\r\nimport \"../coffeecore/Ownable.sol\";\r\nimport \"../coffeeaccesscontrol/ConsumerRole.sol\";\r\nimport \"../coffeeaccesscontrol/DistributorRole.sol\";\r\nimport \"../coffeeaccesscontrol/FarmerRole.sol\";\r\nimport \"../coffeeaccesscontrol/RetailerRole.sol\";\r\ncontract SupplyChain is Ownable, ConsumerRole, RetailerRole, DistributorRole, FarmerRole {\r\n\r\n  // Define 'owner'\r\n  //address owner; owner is now inherited\r\n\r\n  // Define a variable called 'upc' for Universal Product Code (UPC)\r\n  uint  upc;\r\n\r\n  // Define a variable called 'sku' for Stock Keeping Unit (SKU)\r\n  uint  sku;\r\n\r\n  // Define a public mapping 'items' that maps the UPC to an Item.\r\n  mapping (uint => Item) items;\r\n\r\n  // Define a public mapping 'itemsHistory' that maps the UPC to an array of TxHash, \r\n  // that track its journey through the supply chain -- to be sent from DApp.\r\n  mapping (uint => string[]) itemsHistory;\r\n  \r\n  // Define enum 'State' with the following values:\r\n  enum State \r\n  { \r\n    Harvested,  // 0\r\n    Processed,  // 1\r\n    Packed,     // 2\r\n    ForSale,    // 3\r\n    Sold,       // 4\r\n    Shipped,    // 5\r\n    Received,   // 6\r\n    Purchased   // 7\r\n    }\r\n\r\n  State constant defaultState = State.Harvested;\r\n\r\n  // Define a struct 'Item' with the following fields:\r\n  struct Item {\r\n    uint    sku;  // Stock Keeping Unit (SKU)\r\n    uint    upc; // Universal Product Code (UPC), generated by the Farmer, goes on the package, can be verified by the Consumer\r\n    address ownerID;  // Metamask-Ethereum address of the current owner as the product moves through 8 stages\r\n    address originFarmerID; // Metamask-Ethereum address of the Farmer\r\n    string  originFarmName; // Farmer Name\r\n    string  originFarmInformation;  // Farmer Information\r\n    string  originFarmLatitude; // Farm Latitude\r\n    string  originFarmLongitude;  // Farm Longitude\r\n    uint    productID;  // Product ID potentially a combination of upc + sku\r\n    string  productNotes; // Product Notes\r\n    uint    productPrice; // Product Price\r\n    State   itemState;  // Product State as represented in the enum above\r\n    address distributorID;  // Metamask-Ethereum address of the Distributor\r\n    address retailerID; // Metamask-Ethereum address of the Retailer\r\n    address consumerID; // Metamask-Ethereum address of the Consumer\r\n  }\r\n\r\n  // Define 8 events with the same 8 state values and accept 'upc' as input argument\r\n  event Harvested(uint upc);\r\n  event Processed(uint upc);\r\n  event Packed(uint upc);\r\n  event ForSale(uint upc);\r\n  event Sold(uint upc);\r\n  event Shipped(uint upc);\r\n  event Received(uint upc);\r\n  event Purchased(uint upc);\r\n\r\n  // Define a modifer that checks to see if msg.sender == owner of the contract\r\n  // modifier onlyOwner() {\r\n  //   require(msg.sender == owner);\r\n  //   _;\r\n  // } No longer applicable\r\n\r\n  // Define a modifer that verifies the Caller\r\n  modifier verifyCaller (address _address) {\r\n    require(msg.sender == _address); \r\n    _;\r\n  }\r\n\r\n  // Define a modifier that checks if the paid amount is sufficient to cover the price\r\n  modifier paidEnough(uint _price) { \r\n    require(msg.value >= _price); \r\n    _;\r\n  }\r\n  \r\n  // Define a modifier that checks the price and refunds the remaining balance\r\n  modifier checkValue(uint _upc) {\r\n    _;\r\n    uint _price = items[_upc].productPrice;\r\n    uint amountToReturn = msg.value - _price;\r\n    items[_upc].consumerID.transfer(amountToReturn);\r\n  }\r\n\r\n  // Define a modifier that checks if an item.state of a upc is Harvested\r\n  modifier harvested(uint _upc) {\r\n    require(items[_upc].itemState == State.Harvested);\r\n    _;\r\n  }\r\n\r\n  // Define a modifier that checks if an item.state of a upc is Processed\r\n  modifier processed(uint _upc) {\r\n\r\n    require(items[upc].itemState == State.Processed);\r\n    _;\r\n  }\r\n  \r\n  // Define a modifier that checks if an item.state of a upc is Packed\r\n  modifier packed(uint _upc) {\r\n    require(items[upc].itemState == State.Packed);\r\n    _;\r\n  }\r\n\r\n  // Define a modifier that checks if an item.state of a upc is ForSale\r\n  modifier forSale(uint _upc) {\r\n  require(items[upc].itemState == State.ForSale);\r\n    _;\r\n  }\r\n\r\n  // Define a modifier that checks if an item.state of a upc is Sold\r\n  modifier sold(uint _upc) {\r\n\r\n    require(items[upc].itemState == State.Sold);\r\n    _;\r\n  }\r\n  \r\n  // Define a modifier that checks if an item.state of a upc is Shipped\r\n  modifier shipped(uint _upc) {\r\n\r\n      require(items[upc].itemState == State.Shipped);\r\n    _;\r\n  }\r\n\r\n  // Define a modifier that checks if an item.state of a upc is Received\r\n  modifier received(uint _upc) {\r\n  require(items[upc].itemState == State.Received);\r\n    _;\r\n  }\r\n\r\n  // Define a modifier that checks if an item.state of a upc is Purchased\r\n  modifier purchased(uint _upc) {\r\n     require(items[upc].itemState == State.Purchased);\r\n    _;\r\n  }\r\n\r\n  // In the constructor set 'owner' to the address that instantiated the contract\r\n  // and set 'sku' to 1\r\n  // and set 'upc' to 1\r\n  constructor() public payable {\r\n   // owner = msg.sender; is inherented by Ownable\r\n    sku = 1;\r\n    upc = 1;\r\n  }\r\n\r\n  // Define a function 'kill' if required\r\n  // function kill() public {\r\n  //   if (msg.sender == owner) {\r\n  //     selfdestruct(owner);\r\n  //   }\r\n  // } No longer applicable\r\n\r\n  // Define a function 'harvestItem' that allows a farmer to mark an item 'Harvested'\r\n  function harvestItem(uint _upc, address _originFarmerID, string _originFarmName, string _originFarmInformation, string  _originFarmLatitude, string  _originFarmLongitude, uint _productID, string  _productNotes) public \r\n  {\r\n    // Add the new item as part of Harvest\r\n    items[_upc].sku = sku;\r\n    items[_upc].upc = _upc;\r\n    items[_upc].originFarmerID = _originFarmerID;\r\n    items[_upc].originFarmName = _originFarmName;\r\n    items[_upc].originFarmInformation = _originFarmInformation;\r\n    items[_upc].originFarmLatitude = _originFarmLatitude;\r\n    items[_upc].originFarmLongitude = _originFarmLongitude;\r\n    items[_upc].productID = _productID;\r\n    items[_upc].productNotes = _productNotes;\r\n    // Increment sku\r\n    sku = sku + 1;\r\n    // Emit the appropriate event\r\n    emit Harvested(_upc);\r\n  }\r\n\r\n  // Define a function 'processtItem' that allows a farmer to mark an item 'Processed'\r\n  function processItem(uint _upc) public \r\n  // Call modifier to check if upc has passed previous supply chain stage\r\n  harvested(_upc)\r\n  // Call modifier to verify caller of this function\r\n  verifyCaller(items[_upc].originFarmerID)\r\n  {\r\n    // Update the appropriate fields\r\n        items[_upc].itemState = State.Processed;\r\n    // Emit the appropriate event\r\n     emit Processed(_upc);\r\n  }\r\n\r\n  // Define a function 'packItem' that allows a farmer to mark an item 'Packed'\r\n  function packItem(uint _upc) public \r\n  // Call modifier to check if upc has passed previous supply chain stage\r\n    processed(_upc)\r\n  // Call modifier to verify caller of this function\r\n   verifyCaller(items[_upc].originFarmerID)\r\n  {\r\n    // Update the appropriate fields\r\n      items[_upc].itemState = State.Packed;\r\n    // Emit the appropriate event\r\n    emit Packed(_upc);\r\n  }\r\n\r\n  // Define a function 'sellItem' that allows a farmer to mark an item 'ForSale'\r\n  function sellItem(uint _upc, uint _price) public \r\n  // Call modifier to check if upc has passed previous supply chain stage\r\n  packed(_upc)\r\n  // Call modifier to verify caller of this function\r\n  verifyCaller(items[_upc].originFarmerID)\r\n  {\r\n    // Update the appropriate fields\r\n     items[_upc].itemState = State.ForSale;\r\n\r\n      items[_upc].productPrice =  _price;\r\n    // Emit the appropriate event\r\n    emit ForSale(_upc);\r\n  }\r\n\r\n  // Define a function 'buyItem' that allows the disributor to mark an item 'Sold'\r\n  // Use the above defined modifiers to check if the item is available for sale, if the buyer has paid enough, \r\n  // and any excess ether sent is refunded back to the buyer\r\n  function buyItem(uint _upc) public payable \r\n    // Call modifier to check if upc has passed previous supply chain stage\r\n    \r\n    \r\n    forSale(_upc)\r\n    // Call modifer to check if buyer has paid enough\r\n     paidEnough(msg.value) \r\n    // Call modifer to send any excess ether back to buyer\r\n    checkValue(_upc)\r\n    {\r\n    \r\n    // Update the appropriate fields - ownerID, distributorID, itemState\r\n\r\n    items[_upc].ownerID = msg.sender;\r\n    items[_upc].distributorID = msg.sender;\r\n      items[_upc].itemState = State.Sold;\r\n    // Transfer money to farmer\r\n     items[_upc].originFarmerID.transfer(items[_upc].productPrice);\r\n    // emit the appropriate event\r\n     emit Sold(_upc);\r\n  }\r\n\r\n  // Define a function 'shipItem' that allows the distributor to mark an item 'Shipped'\r\n  // Use the above modifers to check if the item is sold\r\n  function shipItem(uint _upc) public \r\n    // Call modifier to check if upc has passed previous supply chain stage\r\n    sold(_upc)\r\n    // Call modifier to verify caller of this function\r\n     verifyCaller(items[_upc].originFarmerID)\r\n    {\r\n    // Update the appropriate fields\r\n    items[_upc].itemState = State.Shipped;\r\n    // Emit the appropriate event\r\n    emit Shipped(_upc);\r\n  }\r\n\r\n  // Define a function 'receiveItem' that allows the retailer to mark an item 'Received'\r\n  // Use the above modifiers to check if the item is shipped\r\n  function receiveItem(uint _upc) public \r\n    // Call modifier to check if upc has passed previous supply chain stage\r\n       shipped(_upc)\r\n    // Access Control List enforced by calling Smart Contract / DApp\r\n      onlyRetailer()\r\n    {\r\n    // Update the appropriate fields - ownerID, retailerID, itemState\r\n    items[_upc].ownerID = msg.sender;\r\n    items[_upc].distributorID = msg.sender;\r\n     items[_upc].itemState = State.Received;\r\n    // Emit the appropriate event\r\n\r\n    emit Received(_upc);\r\n    \r\n  }\r\n\r\n  // Define a function 'purchaseItem' that allows the consumer to mark an item 'Purchased'\r\n  // Use the above modifiers to check if the item is received\r\n  function purchaseItem(uint _upc) public \r\n    // Call modifier to check if upc has passed previous supply chain stage\r\n    received(_upc)\r\n    // Access Control List enforced by calling Smart Contract / DApp\r\n     onlyConsumer()\r\n    {\r\n    // Update the appropriate fields - ownerID, consumerID, itemState\r\n\r\n    items[_upc].ownerID = msg.sender;\r\n    items[_upc].distributorID = msg.sender;\r\n    items[_upc].itemState = State.Purchased;\r\n    \r\n    // Emit the appropriate event\r\n\r\n    emit Purchased(_upc);\r\n    \r\n  }\r\n\r\n  // Define a function 'fetchItemBufferOne' that fetches the data\r\n  function fetchItemBufferOne(uint _upc) public view returns \r\n  (\r\n  uint    itemSKU,\r\n  uint    itemUPC,\r\n  address ownerID,\r\n  address originFarmerID,\r\n  string  originFarmName,\r\n  string  originFarmInformation,\r\n  string  originFarmLatitude,\r\n  string  originFarmLongitude\r\n  ) \r\n  {\r\n  // Assign values to the 8 parameters\r\n     itemSKU = items[_upc].sku;\r\n    itemUPC = items[_upc].upc;\r\n    ownerID = items[_upc].ownerID;\r\n    originFarmerID = items[_upc].originFarmerID;\r\n    originFarmName = items[_upc].originFarmName;\r\n    originFarmInformation = items[_upc].originFarmInformation;\r\n    originFarmLatitude = items[_upc].originFarmLatitude;\r\n    originFarmLongitude = items[_upc].originFarmLongitude;\r\n    \r\n  return \r\n  (\r\n  itemSKU,\r\n  itemUPC,\r\n  ownerID,\r\n  originFarmerID,\r\n  originFarmName,\r\n  originFarmInformation,\r\n  originFarmLatitude,\r\n  originFarmLongitude\r\n  );\r\n  }\r\n\r\n  // Define a function 'fetchItemBufferTwo' that fetches the data\r\n  function fetchItemBufferTwo(uint _upc) public view returns \r\n  (\r\n  uint    itemSKU,\r\n  uint    itemUPC,\r\n  uint    productID,\r\n  string  productNotes,\r\n  uint    productPrice,\r\n  uint    itemState,\r\n  address distributorID,\r\n  address retailerID,\r\n  address consumerID\r\n  ) \r\n  {\r\n    // Assign values to the 9 parameters\r\n\r\n    itemSKU = items[_upc].sku;\r\n    itemUPC = items[_upc].upc;\r\n    productID = items[_upc].productID;\r\n    productNotes = items[_upc].productNotes;\r\n    productPrice = items[_upc].productPrice;\r\n    itemState = uint(items[_upc].itemState);\r\n    distributorID = items[_upc].distributorID;\r\n    retailerID = items[_upc].retailerID;\r\n    consumerID = items[_upc].consumerID;\r\n  \r\n    \r\n  return \r\n  (\r\n  itemSKU,\r\n  itemUPC,\r\n  productID,\r\n  productNotes,\r\n  productPrice,\r\n  itemState,\r\n  distributorID,\r\n  retailerID,\r\n  consumerID\r\n  );\r\n  }\r\n}\r\n",
  "sourcePath": "C:/Users/zanox/Desktop/apps/nd1309-Project-6b-Example-Template/project-6/contracts/coffeebase/SupplyChain.sol",
  "compiler": {
    "name": "solc",
    "version": "0.4.24+commit.e67f0147.Emscripten.clang"
  },
  "schemaVersion": "3.4.1",
  "updatedAt": "2021-07-27T19:39:53.022Z",
  "networkType": "ethereum",
  "devdoc": {
    "methods": {}
  },
  "userdoc": {
    "methods": {
      "isOwner()": {
        "notice": "Check if the calling address is the owner of the contract\r"
      },
      "owner()": {
        "notice": "Look up the address of the owner\r"
      },
      "renounceOwnership()": {
        "notice": "Define a function to renounce ownerhip\r"
      },
      "transferOwnership(address)": {
        "notice": "Define a public function to transfer ownership\r"
      }
    }
  }
}